:100000000C945D000C9485000C9485000C94850084
:100010000C9485000C9485000C9485000C9485004C
:100020000C9485000C9485000C9485000C9485003C
:100030000C9485000C9485000C9485000C9485002C
:100040000C94A0030C9485000C9485000C948500FE
:100050000C9485000C9485000C9485000C9485000C
:100060000C9485000C9485000000000024002700FB
:100070002A0000000000250028002B0004040404CE
:100080000404040402020202020203030303030342
:10009000010204081020408001020408102001021F
:1000A00004081020000000080002010000030407FB
:1000B0000000000000000000370511241FBECFEF34
:1000C000D8E0DEBFCDBF11E0A0E0B1E0EEE4FBE0A0
:1000D00002C005900D92A434B107D9F721E0A4E441
:1000E000B1E001C01D92A736B207E1F710E0CDE5FF
:1000F000D0E004C02197FE010E949F05CC35D107B6
:10010000C9F70E94EA030C94A5050C94000090E046
:10011000FC01EC55FF4F2491FC01E057FF4F349157
:10012000FC01E458FF4FE491EE23C9F0222339F09B
:10013000233001F1A8F4213019F1223029F1F0E047
:10014000EE0FFF1FEE58FF4FA591B4918FB7F894B3
:10015000EC91611126C030953E233C938FBF0895EA
:100160002730A9F02830C9F0243049F78091800069
:100170008F7D03C0809180008F7780938000DFCFD8
:1001800084B58F7784BDDBCF84B58F7DFBCF809125
:10019000B0008F778093B000D2CF8091B0008F7D78
:1001A000F9CF3E2BDACFCF93DF9390E0FC01E057FD
:1001B000FF4F249184589F4FFC0184918823D1F0F4
:1001C00090E0880F991FFC01E859FF4FA591B49169
:1001D000FC01EE58FF4FC591D49161110EC09FB73D
:1001E000F8948C91E22FE0958E238C932881E22362
:1001F000E8839FBFDF91CF9108958FB7F894EC917A
:10020000E22BEC938FBFF6CF3FB7F89480914B0170
:1002100090914C01A0914D01B0914E0126B5A89B43
:1002200005C02F3F19F00196A11DB11D3FBFBA2F88
:10023000A92F982F8827BC01CD01620F711D811D48
:10024000911D42E0660F771F881F991F4A95D1F7CD
:1002500008958F929F92AF92BF92CF92DF92EF92CA
:10026000FF924B015C010E9404016B017C010E9422
:1002700004016C197D098E099F09683E7340810550
:100280009105A8F321E0821A9108A108B10888EE2F
:10029000C80E83E0D81EE11CF11C81149104A10456
:1002A000B10429F7FF90EF90DF90CF90BF90AF900F
:1002B0009F908F900895AF92BF92CF92DF92EF926E
:1002C000FF920F931F93CF93DF936C017B018B0100
:1002D000040F151FEB015E01AE18BF08C017D10750
:1002E00059F06991D601ED91FC910190F081E02DDA
:1002F000C6010995892B79F7C501DF91CF911F912F
:100300000F91FF90EF90DF90CF90BF90AF90089546
:10031000089590E080E0089580E480937C008091CF
:100320007A00806480937A0080917A0086FDFCCF09
:10033000809178009091790064E670E00E94550504
:100340006A307105CCF4709345016093440180914B
:10035000440190914501181619069CF461E08DE066
:100360000E94870068EE73E080E090E00E9429011F
:1003700060E08DE00C9487001092450110924401DA
:10038000E6CF08958F929F92AF92BF920F931F93E3
:10039000CF93DF93CDB7DEB7A1970FB6F894DEBF4A
:1003A0000FBECDBF19A2423008F44AE08E010F5DA6
:1003B0001F4F842E912CB12CA12CA50194010E94D9
:1003C0006905E62FB901CA01EA3044F5E05DD801BC
:1003D000EE938D01232B242B252B79F790E080E0E1
:1003E000109769F0FD0101900020E9F73197AF0106
:1003F0004A1B5B0BBD018FE491E00E945B01A1965B
:100400000FB6F894DEBF0FBECDBFDF91CF911F9125
:100410000F91BF90AF909F908F900895E95CD7CFD8
:10042000FC0101900020E9F73197AF01481B590BFF
:10043000BC018FE491E00C945B01CF93DF93EC015E
:1004400060E08E810E94870061E08E810E948700BB
:1004500060E08E810E9487008BE891E00197F1F7C0
:10046000DF91CF910895CF92DF92EF92FF920F9399
:100470001F93CF93DF936C017C0187E0E80EF11CA2
:10048000D0E0C0E0062F10E0B8010C2E02C0759538
:1004900067950A94E2F76170F70181917F010E94EC
:1004A00087002196C430D10579F7C601DF91CF913D
:1004B0001F910F91FF90EF90DF90CF900C941D0251
:1004C000CF92DF92EF92FF920F931F93CF93DF9320
:1004D000EC01F62E642F8C810E9487008D818F3F66
:1004E00019F060E00E9487000F2D10E08F8584FFD7
:1004F00025C06E0187E0C80ED11CF12CE12CB8019B
:100500000E2C02C0759567950A94E2F76170F601AA
:1005100081916F010E948700FFEFEF1AFF0A88E0C8
:10052000E816F10461F7CE01DF91CF911F910F9191
:10053000FF90EF90DF90CF900C941D02B80184E003
:10054000759567958A95E1F7CE010E9433026F2D6C
:10055000CE01DF91CF911F910F91FF90EF90DF902F
:10056000CF900C94330240E0682F8FE491E00C941C
:10057000600281E00E94B3028BE39FE10197F1F7F3
:100580000895CF93DF93823029F490915E019860B3
:1005900090935E01809362011092630180E48093E6
:1005A000640180E18093650180E58093660161E0EC
:1005B000809153010E94D300809154018F3F19F024
:1005C00061E00E94D30061E0809155010E94D30058
:1005D000CFE4D1E09E012F54314080915E0184FD33
:1005E0000BC084E090E021962817390744F461E0BD
:1005F0008E810E94D300EECF88E090E0F4CF8BE3B1
:100600009DE00197F1F760E0809153010E9487001F
:1006100060E0809155010E948700809154018F3FD6
:1006200019F060E00E94870080915E0184FD34C073
:1006300063E08FE491E00E943302CBE4D6E4CE0184
:100640000197F1F763E08FE491E00E943302219774
:10065000F1F763E08FE491E00E94330283E592E0DA
:100660000197F1F762E08FE491E00E9433028091FC
:100670005E0180620E94B30284E080935F018CE09F
:100680000E94B3020E94B90282E08093600186E07A
:10069000DF91CF910C94B30280620E94B3028BE48D
:1006A00096E40197F1F780915E0180620E94B302A7
:1006B00083E592E00197F1F780915E0180620E94EC
:1006C000B302D5CF90916201691710F06FEF690FF7
:1006D000E62FF0E0E15BFE4F9489890F80680C946F
:1006E000B30241E00E94600281E090E00895CF9261
:1006F000DF92EF92FF926C01990FEE08FF08F7FE70
:1007000016C041E06DE28FE491E00E94600266272E
:100710007727CB016C197D098E099F094AE00E9459
:10072000C2010196FF90EF90DF90CF9008954AE0CC
:10073000C701B601FF90EF90DF90CF900C94C201FB
:100740001F920F920FB60F9211242F933F938F9306
:100750009F93AF93BF938091470190914801A091DF
:100760004901B0914A013091460123E0230F2D3712
:1007700058F50196A11DB11D2093460180934701B4
:1007800090934801A0934901B0934A0180914B0195
:1007900090914C01A0914D01B0914E010196A11D87
:1007A000B11D80934B0190934C01A0934D01B093E8
:1007B0004E01BF91AF919F918F913F912F910F90DB
:1007C0000FBE0F901F90189526E8230F0296A11DCB
:1007D000B11DD2CF789484B5826084BD84B5816028
:1007E00084BD85B5826085BD85B5816085BD8091FC
:1007F0006E00816080936E00109281008091810074
:10080000826080938100809181008160809381006B
:10081000809180008160809380008091B10084602D
:100820008093B1008091B00081608093B00080918E
:100830007A00846080937A0080917A00826080934D
:100840007A0080917A00816080937A0080917A00AA
:10085000806880937A001092C10060E08EE00E9470
:10086000D30061E088E00E94D30061E089E00E944B
:10087000D30061E08AE00E94D30061E08DE00E9435
:10088000D30061E081E00E94D30061E08BE00E9430
:10089000D30061E08CE00E94D30088E40E94B302A0
:1008A000C0E0D1E008E011E069918FE491E00E949E
:1008B00071030C171D07C1F782E00E94C1020E945C
:1008C000B90260E080E00E94620384E191E00E944E
:1008D000100261E080E00E94620385E291E00E94E4
:1008E000100260ED77E080E090E00E9429010E9414
:1008F000B902C0E0D0E060E081E00E94620385E3DD
:1009000091E00E94100261E08FE491E00E94710387
:1009100061E088E00E94870060E089E00E94870033
:1009200060E08AE00E94870064EF71E080E090E080
:100930000E9429010E948C0161E080E00E94620314
:100940008091440190914501181619060CF07DC064
:100950000E94770387E391E00E94100261E081E04A
:100960000E94870060E087E00E94620380E491E0DB
:100970000E94100261E08FE491E00E94710360E048
:1009800088E00E94870061E089E00E94870060E0C3
:100990008AE00E94870064EF71E080E090E00E94AE
:1009A00029010E948C0161E086E00E94620380912F
:1009B000440190914501181619060CF04CC00E9494
:1009C000770387E391E00E94100261E08BE00E94D0
:1009D000870060E08DE00E94620382E491E00E9463
:1009E000100261E08FE491E00E94710360E088E012
:1009F0000E94870060E089E00E94870061E08AE051
:100A00000E94870064EF71E080E090E00E9429017D
:100A10000E948C0161E08CE00E946203809144019D
:100A20009091450118161906E4F40E94770387E3B4
:100A300091E00E94100261E08CE00E948700209704
:100A400009F459CF0E94000056CF8BE391E00E9439
:100A5000100260E084CF8BE391E00E94100260E01E
:100A6000B5CF8BE391E00E94100260E0E5CFEFE4A8
:100A7000F1E0138212828CE091E09183808382E026
:100A800084838FEF858383E0868384E0878385E09A
:100A9000808786E0818787E08287138614861586A3
:100AA0001686178681E00C94C10297FB072E16F478
:100AB000009407D077FD09D00E948B0507FC05D074
:100AC0003EF4909581959F4F0895709561957F4F65
:100AD0000895A1E21A2EAA1BBB1BFD010DC0AA1F7F
:100AE000BB1FEE1FFF1FA217B307E407F50720F097
:100AF000A21BB30BE40BF50B661F771F881F991F12
:100B00001A9469F760957095809590959B01AC015A
:100B1000BD01CF010895AA1BBB1B51E107C0AA1F4D
:100B2000BB1FA617B70710F0A61BB70B881F991F8E
:100B30005A95A9F780959095BC01CD010895EE0FC7
:0E0B4000FF1F0590F491E02D0994F894FFCF6B
:100B4E00000404041F0E04000000000071035B018A
:100B5E00890188014361626C65204661756C742061
:100B6E0054657374004661756C74204465746563D6
:100B7E0074696F6E0052004B6D2000204E462000AF
:040B8E0059004200C8
:00000001FF
